010000278200    P097601000000520170505     ACS                                  
020000001APAWAN  GUPTA                                                                                                                                                                                                                                              Q  Q                                         MM19961105                                                                                   JD3C3C33DD                                                                                           01                                                                           01                                                  05                                                                           W                                   Add2                                                                                                        899900    01                                                                            8512                                                                                                                           9167841902                             b@c.com                                                                                             NW                                   Add22                                                                                                       899900    01                                                                            8512                                                                                                          00                                                                                                                                                                                 20161230YY2016123000                              10319                             000000                                                                 
020000002APHANI MURTHY PAMIDIMARRI                                                                                                                                                                                                                                  VISWAPATHI SASTRY PAMIDIMARRI                MM19800816                                                                                   AWXPP6187A                                                                                           01                                                                           01                                                  05                                                                           5-5-35/137, GROUND FLOOR            NEAR VENKATESHWAR TEMPLE            PRASANTH NAGAR Y JUNCTION KUKATPALLYHYDERABAD                           500072    02                                                                            8512                                                                                                                           9167841902                             murthy.phani@yahoo.com                                                                              Ntest test                           NEAR VENKATESHWAR TEMPLE            PRASANTH NAGAR Y JUNCTION KUKATPALLYHYDERABAD                           500072    01                                                                            8512                                                                                                          00                                                                                                                                                                                 20161230YY2016123000                              10318                             000000                                                                 
020000003ALALIT A GOHIL                                                                                                                                                                                                                                             ARVIND KHODIDAS GOHIL                        MS19900917                                                                                   ASSPG2930P                                                                                           01                                                                           01                                                  05                                                                           8/A, 56/E 1ST FLOOR                 RASUL JIVA COMPOUND, KK MARG        SATRASTA, JACOB CIRCLE              MUMBAI                              400011    19                                                                            8512                                                                                                                           9619277114                             lalit4all09@gmail.com                                                                               N8/A, 56/E 1ST FLOOR                 RASUL JIVA COMPOUND, KK MARG        SATRASTA, JACOB CIRCLE              MUMBAI                              400011    19                                                                            8512                                                                                                          00                                                                                                                                                                                 20161230YY2016123000                              10317                             000000                                                                 
020000004AOMA  RAM                                                                                                                                                                                                                                                  ACHALA  RAM                                  MM19890610                                                                                   BGBPR1879Q                                                                                           01                                                                           01                                                  05                                                                           NO. 105                             TORANGALLU                          R S SANDUR TQ                       BELLARY                             583123    15                                                                            8512                                                                                                                           9611306540                             omaram198913@gmail.com                                                                              NNO. 105                             TORANGALLU                          R S SANDUR TQ                       BELLARY                             583123    15                                                                            8512                                                                                                          00                                                                                                                                                                                 20161231YY2016123100                              10320                             000000                                                                 
020000005AESHVAR  SINGH                                                                                                                                                                                                                                             BHARAT  SINGH                                MM19840703                                                                                   CTFPS7480A                                                                                           01                                                                           01                                                  05                                                                           112 RAVALA MOHALLA                  KHARAPA KALAN PIDAWA                JHALAWAR                            JHALAWAR                            326034    27                                                                            8512                                                                                                                           9587451104                             solankieshvarsingh@gmail.com                                                                        N112 RAVALA MOHALLA                  KHARAPA KALAN PIDAWA                JHALAWAR                            JHALAWAR                            326034    27                                                                            8512                                                                                                          00                                                                                                                                                                                 20161231YY2016123100                              10014                             000000                                                                 
