010000277500    P097601000000320170117     ACS                                  
020000001Ash q gu                                                                                                                                                                                                                                                   wd qew qew                                   MS19920621                                                                                   WENKQJBE99                                                                                           01                                                                           01                                                  05                                                                           wqe                                 qew                                                                                                         462003    07                                                                            8512                                                                                                                           8451800511                             sh@g.com                                                                                            Nwqe                                 qew                                                                                                         462003    07                                                                            8512                                                                                                          00                                                                                                                                                                                 20170110YY2017011000                              10015                             000000                                                                 
020000002Asdddasd deasdasd dassda                                                                                                                                                                                                                                   asdasd dsadas sadasd                         MM19920621                                                                                   HGSDHVASHD                                                                                           01                                                                           01                                                  05                                                                           adsasd                              dasdas                                                                                                      646575    01                                                                            8512                                                                                                                           8451800511                             sh@g2.com                                                                                           Nadsasd                              dasdas                                                                                                      646575    01                                                                            8512                                                                                                          00                                                                                                                                                                                 20170110YY2017011000                              10016                             000000                                                                 
020000003Abrajendra singh bhati                                                                                                                                                                                                                                     shri chandra singh bhati                     MM19760912                                                                                   AMJPB3638C                                                                                           01                                                                           01                                                  05                                                                           EM 108 NEHRU NAGAR BHAOPAL          BHOPAL                                                                                                      462001    18                                                                            8512                                                                                                                           8889485566                             brajendra.bhati@asthatrade.com                                                                      NEM 108 NEHRU NAGAR BHAOPAL          BHOPAL                                                                                                      462001    18                                                                            8512                                                                                                          00                                                                                                                                                                                 20170112YY2017011200                              10017                             000000                                                                 
