010000277800    P097601000003120170201     ACS                                  
020000001APAWAN  GUPTA                                                                                                                                                                                                                                              Q  Q                                         MM19961105                                                                                   JD3C3C33DD                                                                                           01                                                                           01                                                  05                                                                           W                                   Add2                                                                                                        899900    01                                                                            8512                                                                                                                           9167841902                             b@c.com                                                                                             NW                                   Add22                                                                                                       899900    01                                                                            8512                                                                                                          00                                                                                                                                                                                 20161230YY2016123000                              10010                             000000                                                                 
020000002APHANI MURTHY PAMIDIMARRI                                                                                                                                                                                                                                  VISWAPATHI SASTRY PAMIDIMARRI                MM19800816                                                                                   AWXPP6187A                                                                                           01                                                                           01                                                  05                                                                           5-5-35/137, GROUND FLOOR            NEAR VENKATESHWAR TEMPLE            PRASANTH NAGAR Y JUNCTION KUKATPALLYHYDERABAD                           500072    02                                                                            8512                                                                                                                           9167841902                             murthy.phani@yahoo.com                                                                              Ntest test                           NEAR VENKATESHWAR TEMPLE            PRASANTH NAGAR Y JUNCTION KUKATPALLYHYDERABAD                           500072    01                                                                            8512                                                                                                          00                                                                                                                                                                                 20161230YY2016123000                              10011                             000000                                                                 
020000003ALALIT A GOHIL                                                                                                                                                                                                                                             ARVIND KHODIDAS GOHIL                        MS19900917                                                                                   ASSPG2930P                                                                                           01                                                                           01                                                  05                                                                           8/A, 56/E 1ST FLOOR                 RASUL JIVA COMPOUND, KK MARG        SATRASTA, JACOB CIRCLE              MUMBAI                              400011    19                                                                            8512                                                                                                                           9619277114                             lalit4all09@gmail.com                                                                               N8/A, 56/E 1ST FLOOR                 RASUL JIVA COMPOUND, KK MARG        SATRASTA, JACOB CIRCLE              MUMBAI                              400011    19                                                                            8512                                                                                                          00                                                                                                                                                                                 20161230YY2016123000                              10012                             000000                                                                 
020000004AOMA  RAM                                                                                                                                                                                                                                                  ACHALA  RAM                                  MM19890610                                                                                   BGBPR1879Q                                                                                           01                                                                           01                                                  05                                                                           NO. 105                             TORANGALLU                          R S SANDUR TQ                       BELLARY                             583123    15                                                                            8512                                                                                                                           9611306540                             omaram198913@gmail.com                                                                              NNO. 105                             TORANGALLU                          R S SANDUR TQ                       BELLARY                             583123    15                                                                            8512                                                                                                          00                                                                                                                                                                                 20161231YY2016123100                              10013                             000000                                                                 
020000005AISHWAR  SINGH                                                                                                                                                                                                                                             BHARAT  SINGH                                MM19840703                                                                                   CTFPS7480A                                                                                           01                                                                           01                                                  05                                                                           112 RAVALA MOHALLA                  KHARAPA KALAN PIDAWA                JHALAWAR                            JHALAWAR                            326034    27                                                                            8512                                                                                                                           9587451104                             solankieshvarsingh@gmail.com                                                                        N112 RAVALA MOHALLA                  KHARAPA KALAN PIDAWA                JHALAWAR                            JHALAWAR                            326034    27                                                                            8512                                                                                                          00                                                                                                                                                                                 20161231YY2016123100                              10014                             000000                                                                 
020000006Ash q gu                                                                                                                                                                                                                                                   wd qew qew                                   MS19920621                                                                                   WENKQJBE99                                                                                           01                                                                           01                                                  05                                                                           wqe                                 qew                                                                                                         462003    07                                                                            8512                                                                                                                           8451800511                             sh@g.com                                                                                            Nwqe                                 qew                                                                                                         462003    07                                                                            8512                                                                                                          00                                                                                                                                                                                 20170110YY2017011000                              10015                             000000                                                                 
020000007Asdddasd deasdasd dassda                                                                                                                                                                                                                                   asdasd dsadas sadasd                         MM19920621                                                                                   HGSDHVASHD                                                                                           01                                                                           01                                                  05                                                                           adsasd                              dasdas                                                                                                      646575    01                                                                            8512                                                                                                                           8451800511                             sh@g2.com                                                                                           Nadsasd                              dasdas                                                                                                      646575    01                                                                            8512                                                                                                          00                                                                                                                                                                                 20170110YY2017011000                              10016                             000000                                                                 
020000008Abrajendra singh bhati                                                                                                                                                                                                                                     shri chandra singh bhati                     MM19760912                                                                                   AMJPB3638C                                                                                           01                                                                           01                                                  05                                                                           EM 108 NEHRU NAGAR BHAOPAL          BHOPAL                                                                                                      462001    18                                                                            8512                                                                                                                           8889485566                             brajendra.bhati@asthatrade.com                                                                      NEM 108 NEHRU NAGAR BHAOPAL          BHOPAL                                                                                                      462001    18                                                                            8512                                                                                                          00                                                                                                                                                                                 20170112YY2017011200                              10017                             000000                                                                 
020000009AWASIM  KHAN                                                                                                                                                                                                                                               ASLAM   KHAN                                 MS19951105                                                                                   DMPPK6530R                                                                                           01                                                                           01                                                  05                                                                           29 RADHA GANJ DEWAS                 DEWAS                                                                                                       455001    18                                                                            8512                                                                                                                           9144444465                             ROOKWASIMKHAN71@GMAIL.COM                                                                           N29 RADHA GANJ DEWAS                 DEWAS                                                                                                       455001    18                                                                            8512                                                                                                          00                                                                                                                                                                                 20170119YY2017011900                              10018                             000000                                                                 
020000010AFaizan Mohomad Shaikh                                                                                                                                                                                                                                     Zamiruddin  Azizuddin Shaikh                 MS19850302                                                                                   CBAPS3932A                                                                                           01                                                                           01                                                  05                                                                           Fractal Analytics Pvt. Ltd., 101 RahOff Western Express Highway, Goregao                                                                        400063    19                                                                            8512                                                                                                                           9769555730                             faizansm@gmail.com                                                                                  ND/502, BENHUR, LOKHANDWALA COMPLEX, OFF LINK ROAD ANDHERI W                                                                                     400053    19                                                                            8512                                                                                                          00                                                                                                                                                                                 20170119YY2017011900                              10019                             000000                                                                 
020000011AShankar Nagojirao Dhongade                                                                                                                                                                                                                                Nagojirao Gunaji Dhongade                    MM19840829                                                                                   AORPD5876L                                                                                           01                                                                           01                                                  05                                                                           Samarth Residancy F No 1 Untawadi   Nasik                                                                                                       422008    19                                                                            8512                                                                                                                           9922312621                             shankardhongade7@gmail.com                                                                          NS/O Nagojiraao Dhongade Bramha Post Pimpalgaon Taluka  Dist Washim                                                                              444507    19                                                                            8512                                                                                                          00                                                                                                                                                                                 20170122YY2017012200                              10020                             000000                                                                 
020000012Aakhileshwar prasad  bhagat                                                                                                                                                                                                                                mohan prasad bhagat                          MM19590101                                                                                   AGQPB2113B                                                                                           01                                                                           01                                                  05                                                                           C/O RAJIV RANJAN, C16, S.K PURI     PATNA                                                                                                       800001    05                                                                            8512                                                                                                                           7763866201                             aprasad.bhagat@gmail.com                                                                            NC/O RAJIV RANJAN, C16, S.K PURI     PATNA                                                                                                       800001    05                                                                            8512                                                                                                          00                                                                                                                                                                                 20170122YY2017012200                              10021                             000000                                                                 
020000013APawan   Gojawat                                                                                                                                                                                                                                           Sumer Singh  Gojawat                         MM19801230                                                                                   ASZPG2923R                                                                                           01                                                                           01                                                  05                                                                           90 ganga nagar ab road dewas        Dewas                                                                                                       455001    18                                                                            8512                                                                                                                           8889055517                             Pawan8gojawat@rediffmail.com                                                                        N90 ganga nagar ab road dewas        Dewas                                                                                                       455001    18                                                                            8512                                                                                                          00                                                                                                                                                                                 20170122YY2017012200                              10022                             000000                                                                 
020000014Ajagdish  bhavarlal patel                                                                                                                                                                                                                                  bhavarlal sonaram patel                      MS19940411                                                                                   CBSPP7390F                                                                                           01                                                                           01                                                  05                                                                           66/B,venkatesh marg B.T. kavde road pune                                                                                                        411001    19                                                                            8512                                                                                                                           8956106939                             jagdish55patel@gmail.com                                                                            N66/B,venkatesh marg B.T. kavde road pune                                                                                                        411001    19                                                                            8512                                                                                                          00                                                                                                                                                                                 20170122YY2017012200                              10023                             000000                                                                 
020000015AVinod  Kumar                                                                                                                                                                                                                                              Devinder  Kumar                              MM19691231                                                                                   BIYPK5003Q                                                                                           01                                                                           01                                                  05                                                                           H. No. G-137, SombazarRoad, RajapuriNew Delhi                                                                                                   110059    09                                                                            8512                                                                                                                           9811250897                             vinodkakran3@gmail.com                                                                              NH. No. G-137, SombazarRoad, RajapuriNew Delhi                                                                                                   110059    09                                                                            8512                                                                                                          00                                                                                                                                                                                 20170122YY2017012200                              10024                             000000                                                                 
020000016Ashailendra kumar chaudhary                                                                                                                                                                                                                                babu ram chaudhary                           MS19880629                                                                                   AONPC0354G                                                                                           01                                                                           01                                                  05                                                                           122/347 shastri nagar               kanpur                                                                                                      208005    31                                                                            8512                                                                                                                           8808888836                             shail.chaudhary1@gmail.com                                                                          N122/347 shastri nagar               kanpur                                                                                                      208005    31                                                                            8512                                                                                                          00                                                                                                                                                                                 20170122YY2017012200                              10025                             000000                                                                 
020000017ARagesh  P R                                                                                                                                                                                                                                               Rajan P K                                    MM19900124                                                                                   BJLPR3621R                                                                                           01                                                                           01                                                  05                                                                           Puthumana Madam                     Varavoor.P.O,Varavoor,Thrissur                                                                              680585    16                                                                            8512                                                                                                                           9447318274                             rageshpr45@gmail.com                                                                                NPuthumana Madam                     Varavoor.P.O,Varavoor,Thrissur                                                                              680585    16                                                                            8512                                                                                                          00                                                                                                                                                                                 20170122YY2017012200                              10026                             000000                                                                 
020000018ASAMEER RAMCHANDRA TAGDE                                                                                                                                                                                                                                   RAMCHANDRA KESHAV TAGDE                      MS19720424                                                                                   ACYPT8401G                                                                                           01                                                                           01                                                  05                                                                           PLOT NO. 35,PRATAP NAGAR ROAD       FRIENDS COLONY,PRATAP NAGAR         MATE CHOWK                          NAGPUR                              440022    19                                                                            8512                                                                                                                           9960306366                             sameertagde@gmail.com                                                                               NPLOT NO. 35, PRATAP NAGAR ROAD      FRIENDS COLONY, PRATAP NAGAR        MATE CHOWK                          NAGPUR                              440022    19                                                                            8512                                                                                                          00                                                                                                                                                                                 20170123YY2017012300                              10027                             000000                                                                 
020000019Ameghanagasaipraveen  jammalamadaka                                                                                                                                                                                                                        chandramouleswararao  jammalamadaka          MS19920603                                                                                   BBXPJ9902R                                                                                           01                                                                           01                                                  05                                                                           15/33 EDEPALLI                      MACHILIPATNAM                                                                                               521001    02                                                                            8512                                                                                                                           8125942556                             jammalamadaka.saipraveen2010@vitalum.ac.in                                                          N15/33 EDEPALLI                      MACHILIPATNAM                                                                                               521001    02                                                                            8512                                                                                                          00                                                                                                                                                                                 20170123YY2017012300                              10028                             000000                                                                 
020000020APRATAP KUMAR SINGH                                                                                                                                                                                                                                        RAJ KUMAR SINGH                              MS19880824                                                                                   CGDPS1321K                                                                                           01                                                                           01                                                  05                                                                           E-19/2, NEW DEFENCE COLONY UTRETHIYALUCKNOW                                                                                                     226002    31                                                                            8512                                                                                                                           8953655884                             prataptitanic07@gmail.com                                                                           NE-19/2, NEW DEFENCE COLONY UTRETHIYALUCKNOW                                                                                                     226002    31                                                                            8512                                                                                                          00                                                                                                                                                                                 20170124YY2017012400                              10029                             000000                                                                 
020000021Adyapa  ramya                                                                                                                                                                                                                                              s rami reddy                                 MM19720514                                                                                   BICPD1131N                                                                                           01                                                                           01                                                  05                                                                           HNO 4-35-359 PLOT NO 137	, 2nd floornear AKSHARA SCHOOL  kukatpally                                                                             500072    02                                                                            8512                                                                                                                           7416417385                             dyaparamya@yahoo.com                                                                                NHNO 4-35-359 PLOT NO 137	, 2nd floornear AKSHARA SCHOOL  kukatpally                                                                             500072    02                                                                            8512                                                                                                          00                                                                                                                                                                                 20170127YY2017012700                              10030                             000000                                                                 
020000022AAbhay ARVIND Koparde                                                                                                                                                                                                                                      ARVIND VASANT KOPARDE                        MM19871120                                                                                   AXDPK7540D                                                                                           01                                                                           01                                                  05                                                                           FLAT NO-6 J.P.PARADISE              WADGOAN SHERI                                                                                               411014    19                                                                            8512                                                                                                                           9096315771                             aakoparde20@gmail.com                                                                               NFLAT NO-6 J.P.PARADISE              WADGOAN SHERI                                                                                               411014    19                                                                            8512                                                                                                          00                                                                                                                                                                                 20170127YY2017012700                              10031                             000000                                                                 
020000023ABharat Liladhar Tank                                                                                                                                                                                                                                      Liladhar Maganlal Tank                       MM19750517                                                                                   ACTPT0278Q                                                                                           01                                                                           01                                                  05                                                                           E_305 Shilp Saral,                  Opp Kabir Enclave                                                                                           380058    11                                                                            8512                                                                                                                           9913059961                             bharattank@gmail.com                                                                                NE_305 Shilp Saral,                  Opp Kabir Enclave                                                                                           380058    11                                                                            8512                                                                                                          00                                                                                                                                                                                 20170130YY2017013000                              10032                             000000                                                                 
020000024ASmita H Bhimajiyani                                                                                                                                                                                                                                       Hareshbhai Sundarjibhai Bhimajiyani          MM19630919                                                                                   AMXPB2923L                                                                                           01                                                                           01                                                  05                                                                           "Randal Krupa"                      4 Gopalnagar                        Rajkot                              Rajkot                              360002    11                                                                            8512                                                                                                                           9722571641                             tejasbhimajiyani26@gmail.com                                                                        N"Randal Krupa"                      4 Gopalnagar                        Rajkot                              Rajkot                              360002    11                                                                            8512                                                                                                          00                                                                                                                                                                                 20170130YY2017013000                              10033                             000000                                                                 
020000025ARaja sekhar  Valleti                                                                                                                                                                                                                                      Valleti  Chandra sekhar babu                 MM19890518                                                                                   AGYPV2578C                                                                                           01                                                                           01                                                  05                                                                           New i type 2/14                     Mallayyapeta quaters                                                                                        533103    02                                                                            8512                                                                                                                           8688011805                             rishishares18@gmail.com                                                                             NNew i type 2/14                     Mallayyapeta quaters                                                                                        533103    02                                                                            8512                                                                                                          00                                                                                                                                                                                 20170130YY2017013000                              10034                             000000                                                                 
020000026APardeep Kumar Kumar                                                                                                                                                                                                                                       Sh.Subhash Singh Rana                        MM19700101                                                                                   AYUPP3826D                                                                                           01                                                                           01                                                  05                                                                           556/P6                              Sector - 6                                                                                                  123106    12                                                                            8512                                                                                                                           9729988051                             pardeep.rana704@gmail.com                                                                           N389                                 Rajput mohalla                                                                                              132157    12                                                                            8512                                                                                                          00                                                                                                                                                                                 20170130YY2017013000                              10035                             000000                                                                 
020000027ARaman   Gupta                                                                                                                                                                                                                                             RAJ  GUPTA                                   MS19891215                                                                                   AUCPG6055H                                                                                           01                                                                           01                                                  05                                                                           26-C NEW LAL BAGH COLONY            PATIALA                             THE MALL                            PATIYALA                            147001    26                                                                            8512                                                                                                                           9167900015                             ramangupta69@gmail.com                                                                              N26-C NEW LAL BAGH COLONY            PATIALA                             THE MALL                            PATIYALA                            147001    26                                                                            8512                                                                                                          00                                                                                                                                                                                 20170131YY2017013100                              10036                             000000                                                                 
020000028APrashant  Yadav                                                                                                                                                                                                                                           Dinesh  Yadav                                MS19920124                                                                                   AINPY5644F                                                                                           01                                                                           01                                                  05                                                                           244 Shyam Nagar N.X-A               Shyam Nagar N.X-A sukhliya                                                                                  452010    18                                                                            8512                                                                                                                           8770270337                             prashantpri1424@gmail.com                                                                           N244 Shyam Nagar N.X-A               Shyam Nagar N.X-A sukhliya                                                                                  452010    18                                                                            8512                                                                                                          00                                                                                                                                                                                 20170131YY2017013100                              10037                             000000                                                                 
020000029AAmit  Sharma                                                                                                                                                                                                                                              Shivshankar  Sharma                          MS19940119                                                                                   ENSPS4913K                                                                                           01                                                                           01                                                  05                                                                           278,                                New Gauri Nagar bhag-2                                                                                      452003    18                                                                            8512                                                                                                                           9981197969                             amitji1609@gmail.com                                                                                N278,                                New Gauri Nagar bhag-2                                                                                      452003    18                                                                            8512                                                                                                          00                                                                                                                                                                                 20170131YY2017013100                              10038                             000000                                                                 
020000030AHeena  Mohinani                                                                                                                                                                                                                                           Narayan Das Mohinani                         MS19970415                                                                                   DIZPM4184D                                                                                           01                                                                           01                                                  05                                                                           747,Tara bhawan,Laxmi niwas         Lodha street,Raipur (Marwar)                                                                                306304    27                                                                            8512                                                                                                                           8947036707                             h.mohinani.15@gmail.com                                                                             N747,Tara bhawan,Laxmi niwas         Lodha street,Raipur (Marwar)                                                                                306304    27                                                                            8512                                                                                                          00                                                                                                                                                                                 20170131YY2017013100                              10039                             000000                                                                 
020000031AAshish Moreshwar Nival                                                                                                                                                                                                                                    Moreshwar Mahadev Nival                      MS19900702                                                                                   ANIPN5033H                                                                                           01                                                                           01                                                  05                                                                           C1-604                              ganga skies                                                                                                 411019    19                                                                            8512                                                                                                                           9028962800                             nivalashish@gmail.com                                                                               NC1-604                              ganga skies                                                                                                 411019    19                                                                            8512                                                                                                          00                                                                                                                                                                                 20170131YY2017013100                              10040                             000000                                                                 
